{
  "_format": "hh-sol-artifact-1",
  "contractName": "GambleHouseFactory",
  "sourceName": "contracts/gambleHouseFactory.sol",
  "abi": [
    {
      "inputs": [
        {
          "internalType": "address",
          "name": "_bookmaker",
          "type": "address"
        },
        {
          "internalType": "address",
          "name": "_verifierContract",
          "type": "address"
        }
      ],
      "stateMutability": "nonpayable",
      "type": "constructor"
    },
    {
      "inputs": [
        {
          "internalType": "string",
          "name": "message",
          "type": "string"
        }
      ],
      "name": "OnlyBookmaker",
      "type": "error"
    },
    {
      "inputs": [],
      "name": "readAddresses",
      "outputs": [
        {
          "internalType": "address",
          "name": "",
          "type": "address"
        },
        {
          "internalType": "address",
          "name": "",
          "type": "address"
        }
      ],
      "stateMutability": "view",
      "type": "function"
    },
    {
      "inputs": [
        {
          "internalType": "address",
          "name": "_gambleHouseContract",
          "type": "address"
        }
      ],
      "name": "updateAddresses",
      "outputs": [],
      "stateMutability": "nonpayable",
      "type": "function"
    }
  ],
  "bytecode": "0x608060405234801561001057600080fd5b5060405161046d38038061046d833981810160405281019061003291906100cf565b816000806101000a81548173ffffffffffffffffffffffffffffffffffffffff021916908373ffffffffffffffffffffffffffffffffffffffff16021790555080600260006101000a81548173ffffffffffffffffffffffffffffffffffffffff021916908373ffffffffffffffffffffffffffffffffffffffff1602179055505050610154565b6000815190506100c98161013d565b92915050565b600080604083850312156100e257600080fd5b60006100f0858286016100ba565b9250506020610101858286016100ba565b9150509250929050565b60006101168261011d565b9050919050565b600073ffffffffffffffffffffffffffffffffffffffff82169050919050565b6101468161010b565b811461015157600080fd5b50565b61030a806101636000396000f3fe608060405234801561001057600080fd5b50600436106100365760003560e01c80635c5494291461003b578063a643c1a01461005a575b600080fd5b610043610076565b604051610051929190610208565b60405180910390f35b610074600480360381019061006f91906101ad565b6100c7565b005b600080600160009054906101000a900473ffffffffffffffffffffffffffffffffffffffff16600260009054906101000a900473ffffffffffffffffffffffffffffffffffffffff16915091509091565b60008054906101000a900473ffffffffffffffffffffffffffffffffffffffff1673ffffffffffffffffffffffffffffffffffffffff163373ffffffffffffffffffffffffffffffffffffffff1614610154576040517eb219a000000000000000000000000000000000000000000000000000000000815260040161014b90610231565b60405180910390fd5b80600160006101000a81548173ffffffffffffffffffffffffffffffffffffffff021916908373ffffffffffffffffffffffffffffffffffffffff16021790555050565b6000813590506101a7816102bd565b92915050565b6000602082840312156101bf57600080fd5b60006101cd84828501610198565b91505092915050565b6101df81610262565b82525050565b60006101f2601f83610251565b91506101fd82610294565b602082019050919050565b600060408201905061021d60008301856101d6565b61022a60208301846101d6565b9392505050565b6000602082019050818103600083015261024a816101e5565b9050919050565b600082825260208201905092915050565b600061026d82610274565b9050919050565b600073ffffffffffffffffffffffffffffffffffffffff82169050919050565b7f4f6e6c7920426f6f6b6d616b65722063616e2061636365737320746869732100600082015250565b6102c681610262565b81146102d157600080fd5b5056fea26469706673582212201bd19ee439f73484d983aa9f449bbc49907bcc90ab817b362ac33f327874385164736f6c63430008040033",
  "linkReferences": {},
  "deployedLinkReferences": {}
}