{
  "_format": "hh-sol-artifact-1",
  "contractName": "GambleHouse",
  "sourceName": "contracts/gambleHouse.sol",
  "abi": [
    {
      "inputs": [
        {
          "internalType": "address",
          "name": "_bookmaker",
          "type": "address"
        },
        {
          "internalType": "uint256",
          "name": "_bookmaker_priv_key",
          "type": "uint256"
        },
        {
          "internalType": "string",
          "name": "_bookmaker_pub_key_1",
          "type": "string"
        },
        {
          "internalType": "string",
          "name": "_bookmaker_pub_key_2",
          "type": "string"
        },
        {
          "internalType": "uint256",
          "name": "_start_time",
          "type": "uint256"
        },
        {
          "internalType": "uint256",
          "name": "_end_time",
          "type": "uint256"
        },
        {
          "internalType": "uint256",
          "name": "_fixture_id",
          "type": "uint256"
        },
        {
          "internalType": "string",
          "name": "_team0",
          "type": "string"
        },
        {
          "internalType": "string",
          "name": "_team1",
          "type": "string"
        },
        {
          "internalType": "string",
          "name": "_league",
          "type": "string"
        },
        {
          "internalType": "string",
          "name": "_venue",
          "type": "string"
        }
      ],
      "stateMutability": "nonpayable",
      "type": "constructor"
    },
    {
      "inputs": [
        {
          "internalType": "string",
          "name": "message",
          "type": "string"
        }
      ],
      "name": "OnlyBookmaker",
      "type": "error"
    },
    {
      "anonymous": false,
      "inputs": [
        {
          "indexed": true,
          "internalType": "address",
          "name": "accountAddress",
          "type": "address"
        }
      ],
      "name": "LogBookmaker",
      "type": "event"
    },
    {
      "anonymous": false,
      "inputs": [
        {
          "indexed": true,
          "internalType": "address",
          "name": "accountAddress",
          "type": "address"
        },
        {
          "indexed": false,
          "internalType": "uint256",
          "name": "amount",
          "type": "uint256"
        },
        {
          "indexed": false,
          "internalType": "uint256",
          "name": "balance",
          "type": "uint256"
        }
      ],
      "name": "LogDepositMade",
      "type": "event"
    },
    {
      "anonymous": false,
      "inputs": [
        {
          "indexed": true,
          "internalType": "address",
          "name": "accountAddress",
          "type": "address"
        },
        {
          "indexed": false,
          "internalType": "uint256",
          "name": "amount",
          "type": "uint256"
        }
      ],
      "name": "LogRewardSent",
      "type": "event"
    },
    {
      "inputs": [
        {
          "internalType": "uint256",
          "name": "",
          "type": "uint256"
        }
      ],
      "name": "betsChoices",
      "outputs": [
        {
          "internalType": "uint256",
          "name": "iv",
          "type": "uint256"
        },
        {
          "internalType": "uint256",
          "name": "data_bet",
          "type": "uint256"
        },
        {
          "internalType": "uint256",
          "name": "data_choice",
          "type": "uint256"
        }
      ],
      "stateMutability": "view",
      "type": "function"
    },
    {
      "inputs": [],
      "name": "bookmaker",
      "outputs": [
        {
          "internalType": "address",
          "name": "",
          "type": "address"
        }
      ],
      "stateMutability": "view",
      "type": "function"
    },
    {
      "inputs": [
        {
          "internalType": "uint256",
          "name": "",
          "type": "uint256"
        }
      ],
      "name": "bookmakerPubKey",
      "outputs": [
        {
          "internalType": "string",
          "name": "",
          "type": "string"
        }
      ],
      "stateMutability": "view",
      "type": "function"
    },
    {
      "inputs": [
        {
          "internalType": "uint256",
          "name": "_iv",
          "type": "uint256"
        },
        {
          "internalType": "uint256",
          "name": "_data_bet",
          "type": "uint256"
        },
        {
          "internalType": "uint256",
          "name": "_data_choice",
          "type": "uint256"
        },
        {
          "internalType": "string",
          "name": "_pub_key_1",
          "type": "string"
        },
        {
          "internalType": "string",
          "name": "_pub_key_2",
          "type": "string"
        }
      ],
      "name": "deposit",
      "outputs": [],
      "stateMutability": "payable",
      "type": "function"
    },
    {
      "inputs": [],
      "name": "distributeRewards",
      "outputs": [],
      "stateMutability": "nonpayable",
      "type": "function"
    },
    {
      "inputs": [],
      "name": "getBookmakerKeys",
      "outputs": [
        {
          "internalType": "uint256",
          "name": "",
          "type": "uint256"
        },
        {
          "internalType": "string",
          "name": "",
          "type": "string"
        },
        {
          "internalType": "string",
          "name": "",
          "type": "string"
        }
      ],
      "stateMutability": "view",
      "type": "function"
    },
    {
      "inputs": [],
      "name": "getBookmakerPubKey",
      "outputs": [
        {
          "internalType": "string",
          "name": "",
          "type": "string"
        },
        {
          "internalType": "string",
          "name": "",
          "type": "string"
        }
      ],
      "stateMutability": "view",
      "type": "function"
    },
    {
      "inputs": [],
      "name": "getGameInfo",
      "outputs": [
        {
          "internalType": "uint256",
          "name": "",
          "type": "uint256"
        },
        {
          "internalType": "uint256",
          "name": "",
          "type": "uint256"
        },
        {
          "internalType": "uint256",
          "name": "",
          "type": "uint256"
        },
        {
          "internalType": "uint256",
          "name": "",
          "type": "uint256"
        },
        {
          "internalType": "uint256",
          "name": "",
          "type": "uint256"
        },
        {
          "internalType": "string",
          "name": "",
          "type": "string"
        },
        {
          "internalType": "string",
          "name": "",
          "type": "string"
        },
        {
          "internalType": "string",
          "name": "",
          "type": "string"
        },
        {
          "internalType": "string",
          "name": "",
          "type": "string"
        },
        {
          "internalType": "uint256",
          "name": "",
          "type": "uint256"
        },
        {
          "internalType": "uint256",
          "name": "",
          "type": "uint256"
        },
        {
          "internalType": "bool",
          "name": "",
          "type": "bool"
        }
      ],
      "stateMutability": "view",
      "type": "function"
    },
    {
      "inputs": [],
      "name": "getMinBet",
      "outputs": [
        {
          "internalType": "uint256",
          "name": "",
          "type": "uint256"
        }
      ],
      "stateMutability": "view",
      "type": "function"
    },
    {
      "inputs": [
        {
          "internalType": "address",
          "name": "",
          "type": "address"
        }
      ],
      "name": "participants",
      "outputs": [
        {
          "internalType": "uint256",
          "name": "depositAmount",
          "type": "uint256"
        },
        {
          "components": [
            {
              "internalType": "uint256",
              "name": "iv",
              "type": "uint256"
            },
            {
              "internalType": "uint256",
              "name": "data_bet",
              "type": "uint256"
            },
            {
              "internalType": "uint256",
              "name": "data_choice",
              "type": "uint256"
            }
          ],
          "internalType": "struct GambleHouse.EdsaCommitment",
          "name": "blindedBetChoice",
          "type": "tuple"
        },
        {
          "internalType": "bool",
          "name": "participated",
          "type": "bool"
        },
        {
          "internalType": "string",
          "name": "pubKey_1",
          "type": "string"
        },
        {
          "internalType": "string",
          "name": "pubKey_2",
          "type": "string"
        }
      ],
      "stateMutability": "view",
      "type": "function"
    },
    {
      "inputs": [],
      "name": "readParticipants",
      "outputs": [
        {
          "internalType": "address[]",
          "name": "",
          "type": "address[]"
        },
        {
          "internalType": "uint256[]",
          "name": "",
          "type": "uint256[]"
        },
        {
          "internalType": "uint256[]",
          "name": "",
          "type": "uint256[]"
        },
        {
          "internalType": "uint256[]",
          "name": "",
          "type": "uint256[]"
        },
        {
          "internalType": "uint256[]",
          "name": "",
          "type": "uint256[]"
        },
        {
          "internalType": "string[]",
          "name": "",
          "type": "string[]"
        },
        {
          "internalType": "string[]",
          "name": "",
          "type": "string[]"
        }
      ],
      "stateMutability": "view",
      "type": "function"
    },
    {
      "inputs": [
        {
          "internalType": "address[]",
          "name": "partAddr",
          "type": "address[]"
        },
        {
          "internalType": "uint256[]",
          "name": "rewards",
          "type": "uint256[]"
        }
      ],
      "name": "setRewards",
      "outputs": [],
      "stateMutability": "nonpayable",
      "type": "function"
    },
    {
      "inputs": [
        {
          "internalType": "uint256",
          "name": "_odds_0",
          "type": "uint256"
        },
        {
          "internalType": "uint256",
          "name": "_odds_1",
          "type": "uint256"
        },
        {
          "internalType": "uint256",
          "name": "_minBet",
          "type": "uint256"
        }
      ],
      "name": "updateOdds",
      "outputs": [],
      "stateMutability": "nonpayable",
      "type": "function"
    }
  ],
  "bytecode": "0x608060405260056009556000600c556000601060006101000a81548160ff0219169083151502179055503480156200003657600080fd5b50604051620036173803806200361783398181016040528101906200005c9190620003bb565b42600a819055508a601060016101000a81548173ffffffffffffffffffffffffffffffffffffffff021916908373ffffffffffffffffffffffffffffffffffffffff16021790555089601381905550886011600060028110620000e8577f4e487b7100000000000000000000000000000000000000000000000000000000600052603260045260246000fd5b019080519060200190620000fe9291906200026b565b508760116001600281106200013c577f4e487b7100000000000000000000000000000000000000000000000000000000600052603260045260246000fd5b019080519060200190620001529291906200026b565b50601060019054906101000a900473ffffffffffffffffffffffffffffffffffffffff1673ffffffffffffffffffffffffffffffffffffffff167f5835cbec9ca7b1737bb4d65e6e74e25893810e9669d36c84e5a4cc75680c711f60405160405180910390a260008060000181905550600080600101819055508660006007018190555085600060080181905550846000600601819055508360006002019080519060200190620002059291906200026b565b508260006003019080519060200190620002219291906200026b565b5081600060040190805190602001906200023d9291906200026b565b508060006005019080519060200190620002599291906200026b565b5050505050505050505050506200073a565b82805462000279906200062b565b90600052602060002090601f0160209004810192826200029d5760008555620002e9565b82601f10620002b857805160ff1916838001178555620002e9565b82800160010185558215620002e9579182015b82811115620002e8578251825591602001919060010190620002cb565b5b509050620002f89190620002fc565b5090565b5b8082111562000317576000816000905550600101620002fd565b5090565b6000620003326200032c8462000581565b62000558565b9050828152602081018484840111156200034b57600080fd5b62000358848285620005f5565b509392505050565b600081519050620003718162000706565b92915050565b600082601f8301126200038957600080fd5b81516200039b8482602086016200031b565b91505092915050565b600081519050620003b58162000720565b92915050565b60008060008060008060008060008060006101608c8e031215620003de57600080fd5b6000620003ee8e828f0162000360565b9b50506020620004018e828f01620003a4565b9a505060408c015167ffffffffffffffff8111156200041f57600080fd5b6200042d8e828f0162000377565b99505060608c015167ffffffffffffffff8111156200044b57600080fd5b620004598e828f0162000377565b98505060806200046c8e828f01620003a4565b97505060a06200047f8e828f01620003a4565b96505060c0620004928e828f01620003a4565b95505060e08c015167ffffffffffffffff811115620004b057600080fd5b620004be8e828f0162000377565b9450506101008c015167ffffffffffffffff811115620004dd57600080fd5b620004eb8e828f0162000377565b9350506101208c015167ffffffffffffffff8111156200050a57600080fd5b620005188e828f0162000377565b9250506101408c015167ffffffffffffffff8111156200053757600080fd5b620005458e828f0162000377565b9150509295989b509295989b9093969950565b60006200056462000577565b905062000572828262000661565b919050565b6000604051905090565b600067ffffffffffffffff8211156200059f576200059e620006c6565b5b620005aa82620006f5565b9050602081019050919050565b6000620005c482620005cb565b9050919050565b600073ffffffffffffffffffffffffffffffffffffffff82169050919050565b6000819050919050565b60005b8381101562000615578082015181840152602081019050620005f8565b8381111562000625576000848401525b50505050565b600060028204905060018216806200064457607f821691505b602082108114156200065b576200065a62000697565b5b50919050565b6200066c82620006f5565b810181811067ffffffffffffffff821117156200068e576200068d620006c6565b5b80604052505050565b7f4e487b7100000000000000000000000000000000000000000000000000000000600052602260045260246000fd5b7f4e487b7100000000000000000000000000000000000000000000000000000000600052604160045260246000fd5b6000601f19601f8301169050919050565b6200071181620005b7565b81146200071d57600080fd5b50565b6200072b81620005eb565b81146200073757600080fd5b50565b612ecd806200074a6000396000f3fe6080604052600436106100c25760003560e01c8063701a1d661161007f5780639cf97f92116100595780639cf97f921461026a578063c54fbf0314610293578063d90adb25146102c4578063fda91cd314610303576100c2565b8063701a1d66146101d75780638e47cec4146102045780639292052214610241576100c2565b806309e69ede146100c75780631746bd1b146101085780631cef08c61461013e57806324c3750714610169578063302cd3f9146101945780636f4a2cd0146101c0575b600080fd5b3480156100d357600080fd5b506100ee60048036038101906100e99190612144565b61031f565b6040516100ff95949392919061282f565b60405180910390f35b34801561011457600080fd5b5061011d61049a565b6040516101359c9b9a999897969594939291906128f0565b60405180910390f35b34801561014a57600080fd5b50610153610748565b604051610160919061261b565b60405180910390f35b34801561017557600080fd5b5061017e61076e565b60405161018b91906127cf565b60405180910390f35b3480156101a057600080fd5b506101a9610778565b6040516101b79291906126f8565b60405180910390f35b3480156101cc57600080fd5b506101d5610913565b005b3480156101e357600080fd5b506101ec610c86565b6040516101fb939291906127ea565b60405180910390f35b34801561021057600080fd5b5061022b600480360381019061022691906121d9565b610eb8565b60405161023891906126d6565b60405180910390f35b34801561024d57600080fd5b506102686004803603810190610263919061216d565b610f5b565b005b34801561027657600080fd5b50610291600480360381019061028c9190612202565b6110d2565b005b34801561029f57600080fd5b506102a8611180565b6040516102bb9796959493929190612636565b60405180910390f35b3480156102d057600080fd5b506102eb60048036038101906102e691906121d9565b6119cc565b6040516102fa939291906128b9565b60405180910390f35b61031d60048036038101906103189190612251565b611a06565b005b600b602052806000526040600020600091509050806000015490806001016040518060600160405290816000820154815260200160018201548152602001600282015481525050908060040160009054906101000a900460ff169080600501805461038990612c2c565b80601f01602080910402602001604051908101604052809291908181526020018280546103b590612c2c565b80156104025780601f106103d757610100808354040283529160200191610402565b820191906000526020600020905b8154815290600101906020018083116103e557829003601f168201915b50505050509080600601805461041790612c2c565b80601f016020809104026020016040519081016040528092919081815260200182805461044390612c2c565b80156104905780601f1061046557610100808354040283529160200191610490565b820191906000526020600020905b81548152906001019060200180831161047357829003601f168201915b5050505050905085565b600080600080600060608060608060008060008060000154600060010154600060070154600060080154476000600201600060030160006004016000600501600060060154600c54601060009054906101000a900460ff168680546104fe90612c2c565b80601f016020809104026020016040519081016040528092919081815260200182805461052a90612c2c565b80156105775780601f1061054c57610100808354040283529160200191610577565b820191906000526020600020905b81548152906001019060200180831161055a57829003601f168201915b5050505050965085805461058a90612c2c565b80601f01602080910402602001604051908101604052809291908181526020018280546105b690612c2c565b80156106035780601f106105d857610100808354040283529160200191610603565b820191906000526020600020905b8154815290600101906020018083116105e657829003601f168201915b5050505050955084805461061690612c2c565b80601f016020809104026020016040519081016040528092919081815260200182805461064290612c2c565b801561068f5780601f106106645761010080835404028352916020019161068f565b820191906000526020600020905b81548152906001019060200180831161067257829003601f168201915b505050505094508380546106a290612c2c565b80601f01602080910402602001604051908101604052809291908181526020018280546106ce90612c2c565b801561071b5780601f106106f05761010080835404028352916020019161071b565b820191906000526020600020905b8154815290600101906020018083116106fe57829003601f168201915b505050505093509b509b509b509b509b509b509b509b509b509b509b509b50909192939495969798999a9b565b601060019054906101000a900473ffffffffffffffffffffffffffffffffffffffff1681565b6000600954905090565b60608060116000600281106107b6577f4e487b7100000000000000000000000000000000000000000000000000000000600052603260045260246000fd5b0160116001600281106107f2577f4e487b7100000000000000000000000000000000000000000000000000000000600052603260045260246000fd5b018180546107ff90612c2c565b80601f016020809104026020016040519081016040528092919081815260200182805461082b90612c2c565b80156108785780601f1061084d57610100808354040283529160200191610878565b820191906000526020600020905b81548152906001019060200180831161085b57829003601f168201915b5050505050915080805461088b90612c2c565b80601f01602080910402602001604051908101604052809291908181526020018280546108b790612c2c565b80156109045780601f106108d957610100808354040283529160200191610904565b820191906000526020600020905b8154815290600101906020018083116108e757829003601f168201915b50505050509050915091509091565b601060019054906101000a900473ffffffffffffffffffffffffffffffffffffffff1673ffffffffffffffffffffffffffffffffffffffff163373ffffffffffffffffffffffffffffffffffffffff16146109a2576040517eb219a00000000000000000000000000000000000000000000000000000000081526004016109999061278f565b60405180910390fd5b60005b600d80549050811015610c6857600d81815481106109ec577f4e487b7100000000000000000000000000000000000000000000000000000000600052603260045260246000fd5b9060005260206000200160009054906101000a900473ffffffffffffffffffffffffffffffffffffffff1673ffffffffffffffffffffffffffffffffffffffff166108fc600f6000600d8581548110610a6e577f4e487b7100000000000000000000000000000000000000000000000000000000600052603260045260246000fd5b9060005260206000200160009054906101000a900473ffffffffffffffffffffffffffffffffffffffff1673ffffffffffffffffffffffffffffffffffffffff1673ffffffffffffffffffffffffffffffffffffffff168152602001908152602001600020549081150290604051600060405180830381858888f19350505050158015610aff573d6000803e3d6000fd5b50600d8181548110610b3a577f4e487b7100000000000000000000000000000000000000000000000000000000600052603260045260246000fd5b9060005260206000200160009054906101000a900473ffffffffffffffffffffffffffffffffffffffff1673ffffffffffffffffffffffffffffffffffffffff167ff18843820aa5d5cbdc0032654213196691d88a36a79b16aee143b10853b95a68600f6000600d8581548110610bda577f4e487b7100000000000000000000000000000000000000000000000000000000600052603260045260246000fd5b9060005260206000200160009054906101000a900473ffffffffffffffffffffffffffffffffffffffff1673ffffffffffffffffffffffffffffffffffffffff1673ffffffffffffffffffffffffffffffffffffffff16815260200190815260200160002054604051610c4d91906127cf565b60405180910390a28080610c6090612c8f565b9150506109a5565b506001601060006101000a81548160ff021916908315150217905550565b6000606080601060019054906101000a900473ffffffffffffffffffffffffffffffffffffffff1673ffffffffffffffffffffffffffffffffffffffff163373ffffffffffffffffffffffffffffffffffffffff1614610d1a576040517eb219a0000000000000000000000000000000000000000000000000000000008152600401610d119061278f565b60405180910390fd5b6013546011600060028110610d58577f4e487b7100000000000000000000000000000000000000000000000000000000600052603260045260246000fd5b016011600160028110610d94577f4e487b7100000000000000000000000000000000000000000000000000000000600052603260045260246000fd5b01818054610da190612c2c565b80601f0160208091040260200160405190810160405280929190818152602001828054610dcd90612c2c565b8015610e1a5780601f10610def57610100808354040283529160200191610e1a565b820191906000526020600020905b815481529060010190602001808311610dfd57829003601f168201915b50505050509150808054610e2d90612c2c565b80601f0160208091040260200160405190810160405280929190818152602001828054610e5990612c2c565b8015610ea65780601f10610e7b57610100808354040283529160200191610ea6565b820191906000526020600020905b815481529060010190602001808311610e8957829003601f168201915b50505050509050925092509250909192565b60118160028110610ec857600080fd5b016000915090508054610eda90612c2c565b80601f0160208091040260200160405190810160405280929190818152602001828054610f0690612c2c565b8015610f535780601f10610f2857610100808354040283529160200191610f53565b820191906000526020600020905b815481529060010190602001808311610f3657829003601f168201915b505050505081565b601060019054906101000a900473ffffffffffffffffffffffffffffffffffffffff1673ffffffffffffffffffffffffffffffffffffffff163373ffffffffffffffffffffffffffffffffffffffff1614610fea576040517eb219a0000000000000000000000000000000000000000000000000000000008152600401610fe19061278f565b60405180910390fd5b60005b82518110156110cd5781818151811061102f577f4e487b7100000000000000000000000000000000000000000000000000000000600052603260045260246000fd5b6020026020010151600f6000858481518110611074577f4e487b7100000000000000000000000000000000000000000000000000000000600052603260045260246000fd5b602002602001015173ffffffffffffffffffffffffffffffffffffffff1673ffffffffffffffffffffffffffffffffffffffff1681526020019081526020016000208190555080806110c590612c8f565b915050610fed565b505050565b601060019054906101000a900473ffffffffffffffffffffffffffffffffffffffff1673ffffffffffffffffffffffffffffffffffffffff163373ffffffffffffffffffffffffffffffffffffffff1614611161576040517eb219a00000000000000000000000000000000000000000000000000000000081526004016111589061278f565b60405180910390fd5b8260008001819055508160006001018190555080600981905550505050565b6060806060806060806060601060019054906101000a900473ffffffffffffffffffffffffffffffffffffffff1673ffffffffffffffffffffffffffffffffffffffff163373ffffffffffffffffffffffffffffffffffffffff161461121a576040517eb219a00000000000000000000000000000000000000000000000000000000081526004016112119061278f565b60405180910390fd5b6000600c5467ffffffffffffffff81111561125e577f4e487b7100000000000000000000000000000000000000000000000000000000600052604160045260246000fd5b60405190808252806020026020018201604052801561128c5781602001602082028036833780820191505090505b5090506000600c5467ffffffffffffffff8111156112d3577f4e487b7100000000000000000000000000000000000000000000000000000000600052604160045260246000fd5b6040519080825280602002602001820160405280156113015781602001602082028036833780820191505090505b5090506000600c5467ffffffffffffffff811115611348577f4e487b7100000000000000000000000000000000000000000000000000000000600052604160045260246000fd5b6040519080825280602002602001820160405280156113765781602001602082028036833780820191505090505b5090506000600c5467ffffffffffffffff8111156113bd577f4e487b7100000000000000000000000000000000000000000000000000000000600052604160045260246000fd5b6040519080825280602002602001820160405280156113eb5781602001602082028036833780820191505090505b5090506000600c5467ffffffffffffffff811115611432577f4e487b7100000000000000000000000000000000000000000000000000000000600052604160045260246000fd5b6040519080825280602002602001820160405280156114605781602001602082028036833780820191505090505b5090506000600c5467ffffffffffffffff8111156114a7577f4e487b7100000000000000000000000000000000000000000000000000000000600052604160045260246000fd5b6040519080825280602002602001820160405280156114da57816020015b60608152602001906001900390816114c55790505b5090506000600c5467ffffffffffffffff811115611521577f4e487b7100000000000000000000000000000000000000000000000000000000600052604160045260246000fd5b60405190808252806020026020018201604052801561155457816020015b606081526020019060019003908161153f5790505b50905060005b600c548110156119a657600d818154811061159e577f4e487b7100000000000000000000000000000000000000000000000000000000600052603260045260246000fd5b9060005260206000200160009054906101000a900473ffffffffffffffffffffffffffffffffffffffff16888281518110611602577f4e487b7100000000000000000000000000000000000000000000000000000000600052603260045260246000fd5b602002602001019073ffffffffffffffffffffffffffffffffffffffff16908173ffffffffffffffffffffffffffffffffffffffff16815250506000600b60008a848151811061167b577f4e487b7100000000000000000000000000000000000000000000000000000000600052603260045260246000fd5b602002602001015173ffffffffffffffffffffffffffffffffffffffff1673ffffffffffffffffffffffffffffffffffffffff168152602001908152602001600020905080600001548883815181106116fd577f4e487b7100000000000000000000000000000000000000000000000000000000600052603260045260246000fd5b602002602001018181525050806001016000015487838151811061174a577f4e487b7100000000000000000000000000000000000000000000000000000000600052603260045260246000fd5b6020026020010181815250508060010160010154868381518110611797577f4e487b7100000000000000000000000000000000000000000000000000000000600052603260045260246000fd5b60200260200101818152505080600101600201548583815181106117e4577f4e487b7100000000000000000000000000000000000000000000000000000000600052603260045260246000fd5b6020026020010181815250508060050180546117ff90612c2c565b80601f016020809104026020016040519081016040528092919081815260200182805461182b90612c2c565b80156118785780601f1061184d57610100808354040283529160200191611878565b820191906000526020600020905b81548152906001019060200180831161185b57829003601f168201915b50505050508483815181106118b6577f4e487b7100000000000000000000000000000000000000000000000000000000600052603260045260246000fd5b60200260200101819052508060060180546118d090612c2c565b80601f01602080910402602001604051908101604052809291908181526020018280546118fc90612c2c565b80156119495780601f1061191e57610100808354040283529160200191611949565b820191906000526020600020905b81548152906001019060200180831161192c57829003601f168201915b5050505050838381518110611987577f4e487b7100000000000000000000000000000000000000000000000000000000600052603260045260246000fd5b602002602001018190525050808061199e90612c8f565b91505061155a565b50868686868686869d509d509d509d509d509d509d505050505050505090919293949596565b600e81815481106119dc57600080fd5b90600052602060002090600302016000915090508060000154908060010154908060020154905083565b600b60003373ffffffffffffffffffffffffffffffffffffffff1673ffffffffffffffffffffffffffffffffffffffff16815260200190815260200160002060040160009054906101000a900460ff1615611a96576040517f08c379a0000000000000000000000000000000000000000000000000000000008152600401611a8d906127af565b60405180910390fd5b601060019054906101000a900473ffffffffffffffffffffffffffffffffffffffff1673ffffffffffffffffffffffffffffffffffffffff163373ffffffffffffffffffffffffffffffffffffffff161415611b27576040517f08c379a0000000000000000000000000000000000000000000000000000000008152600401611b1e9061276f565b60405180910390fd5b600060070154421115611b6f576040517f08c379a0000000000000000000000000000000000000000000000000000000008152600401611b669061272f565b60405180910390fd5b600954341015611bb4576040517f08c379a0000000000000000000000000000000000000000000000000000000008152600401611bab9061274f565b60405180910390fd5b34600b60003373ffffffffffffffffffffffffffffffffffffffff1673ffffffffffffffffffffffffffffffffffffffff16815260200190815260200160002060000181905550604051806060016040528086815260200185815260200184815250600b60003373ffffffffffffffffffffffffffffffffffffffff1673ffffffffffffffffffffffffffffffffffffffff16815260200190815260200160002060010160008201518160000155602082015181600101556040820151816002015590505081600b60003373ffffffffffffffffffffffffffffffffffffffff1673ffffffffffffffffffffffffffffffffffffffff1681526020019081526020016000206005019080519060200190611ccf929190611ee3565b5080600b60003373ffffffffffffffffffffffffffffffffffffffff1673ffffffffffffffffffffffffffffffffffffffff1681526020019081526020016000206006019080519060200190611d26929190611ee3565b50600d339080600181540180825580915050600190039060005260206000200160009091909190916101000a81548173ffffffffffffffffffffffffffffffffffffffff021916908373ffffffffffffffffffffffffffffffffffffffff160217905550600e600b60003373ffffffffffffffffffffffffffffffffffffffff1673ffffffffffffffffffffffffffffffffffffffff168152602001908152602001600020600101908060018154018082558091505060019003906000526020600020906003020160009091909190915060008201548160000155600182015481600101556002820154816002015550506001600b60003373ffffffffffffffffffffffffffffffffffffffff1673ffffffffffffffffffffffffffffffffffffffff16815260200190815260200160002060040160006101000a81548160ff0219169083151502179055506001600c6000828254611e859190612b4c565b925050819055503373ffffffffffffffffffffffffffffffffffffffff167f878a8b64f941828f8f97d98bb30a6492017068e3b1c9228b9c4d9b079e8cc42e3447604051611ed4929190612890565b60405180910390a25050505050565b828054611eef90612c2c565b90600052602060002090601f016020900481019282611f115760008555611f58565b82601f10611f2a57805160ff1916838001178555611f58565b82800160010185558215611f58579182015b82811115611f57578251825591602001919060010190611f3c565b5b509050611f659190611f69565b5090565b5b80821115611f82576000816000905550600101611f6a565b5090565b6000611f99611f94846129eb565b6129c6565b90508083825260208201905082856020860282011115611fb857600080fd5b60005b85811015611fe85781611fce888261209c565b845260208401935060208301925050600181019050611fbb565b5050509392505050565b600061200561200084612a17565b6129c6565b9050808382526020820190508285602086028201111561202457600080fd5b60005b85811015612054578161203a888261212f565b845260208401935060208301925050600181019050612027565b5050509392505050565b600061207161206c84612a43565b6129c6565b90508281526020810184848401111561208957600080fd5b612094848285612bea565b509392505050565b6000813590506120ab81612e69565b92915050565b600082601f8301126120c257600080fd5b81356120d2848260208601611f86565b91505092915050565b600082601f8301126120ec57600080fd5b81356120fc848260208601611ff2565b91505092915050565b600082601f83011261211657600080fd5b813561212684826020860161205e565b91505092915050565b60008135905061213e81612e80565b92915050565b60006020828403121561215657600080fd5b60006121648482850161209c565b91505092915050565b6000806040838503121561218057600080fd5b600083013567ffffffffffffffff81111561219a57600080fd5b6121a6858286016120b1565b925050602083013567ffffffffffffffff8111156121c357600080fd5b6121cf858286016120db565b9150509250929050565b6000602082840312156121eb57600080fd5b60006121f98482850161212f565b91505092915050565b60008060006060848603121561221757600080fd5b60006122258682870161212f565b93505060206122368682870161212f565b92505060406122478682870161212f565b9150509250925092565b600080600080600060a0868803121561226957600080fd5b60006122778882890161212f565b95505060206122888882890161212f565b94505060406122998882890161212f565b935050606086013567ffffffffffffffff8111156122b657600080fd5b6122c288828901612105565b925050608086013567ffffffffffffffff8111156122df57600080fd5b6122eb88828901612105565b9150509295509295909350565b6000612304838361233c565b60208301905092915050565b600061231c838361249a565b905092915050565b600061233083836125fd565b60208301905092915050565b61234581612ba2565b82525050565b61235481612ba2565b82525050565b600061236582612aa4565b61236f8185612af7565b935061237a83612a74565b8060005b838110156123ab57815161239288826122f8565b975061239d83612ad0565b92505060018101905061237e565b5085935050505092915050565b60006123c382612aaf565b6123cd8185612b08565b9350836020820285016123df85612a84565b8060005b8581101561241b57848403895281516123fc8582612310565b945061240783612add565b925060208a019950506001810190506123e3565b50829750879550505050505092915050565b600061243882612aba565b6124428185612b19565b935061244d83612a94565b8060005b8381101561247e5781516124658882612324565b975061247083612aea565b925050600181019050612451565b5085935050505092915050565b61249481612bb4565b82525050565b60006124a582612ac5565b6124af8185612b2a565b93506124bf818560208601612bf9565b6124c881612d65565b840191505092915050565b60006124de82612ac5565b6124e88185612b3b565b93506124f8818560208601612bf9565b61250181612d65565b840191505092915050565b6000612519602483612b3b565b915061252482612d76565b604082019050919050565b600061253c601583612b3b565b915061254782612dc5565b602082019050919050565b600061255f601c83612b3b565b915061256a82612dee565b602082019050919050565b6000612582601f83612b3b565b915061258d82612e17565b602082019050919050565b60006125a5601483612b3b565b91506125b082612e40565b602082019050919050565b6060820160008201516125d160008501826125fd565b5060208201516125e460208501826125fd565b5060408201516125f760408501826125fd565b50505050565b61260681612be0565b82525050565b61261581612be0565b82525050565b6000602082019050612630600083018461234b565b92915050565b600060e0820190508181036000830152612650818a61235a565b90508181036020830152612664818961242d565b90508181036040830152612678818861242d565b9050818103606083015261268c818761242d565b905081810360808301526126a0818661242d565b905081810360a08301526126b481856123b8565b905081810360c08301526126c881846123b8565b905098975050505050505050565b600060208201905081810360008301526126f081846124d3565b905092915050565b6000604082019050818103600083015261271281856124d3565b9050818103602083015261272681846124d3565b90509392505050565b600060208201905081810360008301526127488161250c565b9050919050565b600060208201905081810360008301526127688161252f565b9050919050565b6000602082019050818103600083015261278881612552565b9050919050565b600060208201905081810360008301526127a881612575565b9050919050565b600060208201905081810360008301526127c881612598565b9050919050565b60006020820190506127e4600083018461260c565b92915050565b60006060820190506127ff600083018661260c565b818103602083015261281181856124d3565b9050818103604083015261282581846124d3565b9050949350505050565b600060e082019050612844600083018861260c565b61285160208301876125bb565b61285e608083018661248b565b81810360a083015261287081856124d3565b905081810360c083015261288481846124d3565b90509695505050505050565b60006040820190506128a5600083018561260c565b6128b2602083018461260c565b9392505050565b60006060820190506128ce600083018661260c565b6128db602083018561260c565b6128e8604083018461260c565b949350505050565b600061018082019050612906600083018f61260c565b612913602083018e61260c565b612920604083018d61260c565b61292d606083018c61260c565b61293a608083018b61260c565b81810360a083015261294c818a6124d3565b905081810360c083015261296081896124d3565b905081810360e083015261297481886124d3565b905081810361010083015261298981876124d3565b905061299961012083018661260c565b6129a761014083018561260c565b6129b561016083018461248b565b9d9c50505050505050505050505050565b60006129d06129e1565b90506129dc8282612c5e565b919050565b6000604051905090565b600067ffffffffffffffff821115612a0657612a05612d36565b5b602082029050602081019050919050565b600067ffffffffffffffff821115612a3257612a31612d36565b5b602082029050602081019050919050565b600067ffffffffffffffff821115612a5e57612a5d612d36565b5b612a6782612d65565b9050602081019050919050565b6000819050602082019050919050565b6000819050602082019050919050565b6000819050602082019050919050565b600081519050919050565b600081519050919050565b600081519050919050565b600081519050919050565b6000602082019050919050565b6000602082019050919050565b6000602082019050919050565b600082825260208201905092915050565b600082825260208201905092915050565b600082825260208201905092915050565b600082825260208201905092915050565b600082825260208201905092915050565b6000612b5782612be0565b9150612b6283612be0565b9250827fffffffffffffffffffffffffffffffffffffffffffffffffffffffffffffffff03821115612b9757612b96612cd8565b5b828201905092915050565b6000612bad82612bc0565b9050919050565b60008115159050919050565b600073ffffffffffffffffffffffffffffffffffffffff82169050919050565b6000819050919050565b82818337600083830152505050565b60005b83811015612c17578082015181840152602081019050612bfc565b83811115612c26576000848401525b50505050565b60006002820490506001821680612c4457607f821691505b60208210811415612c5857612c57612d07565b5b50919050565b612c6782612d65565b810181811067ffffffffffffffff82111715612c8657612c85612d36565b5b80604052505050565b6000612c9a82612be0565b91507fffffffffffffffffffffffffffffffffffffffffffffffffffffffffffffffff821415612ccd57612ccc612cd8565b5b600182019050919050565b7f4e487b7100000000000000000000000000000000000000000000000000000000600052601160045260246000fd5b7f4e487b7100000000000000000000000000000000000000000000000000000000600052602260045260246000fd5b7f4e487b7100000000000000000000000000000000000000000000000000000000600052604160045260246000fd5b6000601f19601f8301169050919050565b7f4576656e742068617320737461727465642e2043616e6e6f7420706c6163652060008201527f6265747300000000000000000000000000000000000000000000000000000000602082015250565b7f4d696e20626574206e6f74207361746973666965640000000000000000000000600082015250565b7f426f6f6b6d616b65722063616e6e6f7420706172746963697061746500000000600082015250565b7f4f6e6c7920426f6f6b6d616b65722063616e2061636365737320746869732100600082015250565b7f416c726561647920506172746963697061746564000000000000000000000000600082015250565b612e7281612ba2565b8114612e7d57600080fd5b50565b612e8981612be0565b8114612e9457600080fd5b5056fea264697066735822122000e6d6cab6ec9f65256d50de7dab05463e4501ca74f51e0219f1268b55658c4364736f6c63430008040033",
  "linkReferences": {},
  "deployedLinkReferences": {}
}