{
  "_format": "hh-sol-artifact-1",
  "contractName": "OddsVerifier",
  "sourceName": "contracts/validateOdds_verifier.sol",
  "abi": [
    {
      "inputs": [
        {
          "internalType": "uint256[2]",
          "name": "a",
          "type": "uint256[2]"
        },
        {
          "internalType": "uint256[2][2]",
          "name": "b",
          "type": "uint256[2][2]"
        },
        {
          "internalType": "uint256[2]",
          "name": "c",
          "type": "uint256[2]"
        },
        {
          "internalType": "uint256[14]",
          "name": "input",
          "type": "uint256[14]"
        }
      ],
      "name": "verifyProof",
      "outputs": [
        {
          "internalType": "bool",
          "name": "r",
          "type": "bool"
        }
      ],
      "stateMutability": "view",
      "type": "function"
    }
  ],
  "bytecode": "0x608060405234801561001057600080fd5b50612aaa806100206000396000f3fe608060405234801561001057600080fd5b506004361061002b5760003560e01c80638d15f88f14610030575b600080fd5b61004a6004803603810190610045919061245b565b610060565b60405161005791906125a1565b60405180910390f35b600061006a612166565b6040518060400160405280876000600281106100af577f4e487b7100000000000000000000000000000000000000000000000000000000600052603260045260246000fd5b60200201518152602001876001600281106100f3577f4e487b7100000000000000000000000000000000000000000000000000000000600052603260045260246000fd5b602002015181525081600001819052506040518060400160405280604051806040016040528088600060028110610153577f4e487b7100000000000000000000000000000000000000000000000000000000600052603260045260246000fd5b6020020151600060028110610191577f4e487b7100000000000000000000000000000000000000000000000000000000600052603260045260246000fd5b60200201518152602001886000600281106101d5577f4e487b7100000000000000000000000000000000000000000000000000000000600052603260045260246000fd5b6020020151600160028110610213577f4e487b7100000000000000000000000000000000000000000000000000000000600052603260045260246000fd5b60200201518152508152602001604051806040016040528088600160028110610265577f4e487b7100000000000000000000000000000000000000000000000000000000600052603260045260246000fd5b60200201516000600281106102a3577f4e487b7100000000000000000000000000000000000000000000000000000000600052603260045260246000fd5b60200201518152602001886001600281106102e7577f4e487b7100000000000000000000000000000000000000000000000000000000600052603260045260246000fd5b6020020151600160028110610325577f4e487b7100000000000000000000000000000000000000000000000000000000600052603260045260246000fd5b6020020151815250815250816020018190525060405180604001604052808560006002811061037d577f4e487b7100000000000000000000000000000000000000000000000000000000600052603260045260246000fd5b60200201518152602001856001600281106103c1577f4e487b7100000000000000000000000000000000000000000000000000000000600052603260045260246000fd5b602002015181525081604001819052506000600e67ffffffffffffffff811115610414577f4e487b7100000000000000000000000000000000000000000000000000000000600052604160045260246000fd5b6040519080825280602002602001820160405280156104425781602001602082028036833780820191505090505b50905060005b600e8110156104e7578481600e811061048a577f4e487b7100000000000000000000000000000000000000000000000000000000600052603260045260246000fd5b60200201518282815181106104c8577f4e487b7100000000000000000000000000000000000000000000000000000000600052603260045260246000fd5b60200260200101818152505080806104df9061284f565b915050610448565b5060006104f48284610514565b14156105055760019250505061050c565b6000925050505b949350505050565b6000807f30644e72e131a029b85045b68181585d2833e84879b9709143e1f593f00000019050600061054461079f565b90508060800151516001865161055a9190612724565b1461059a576040517f08c379a0000000000000000000000000000000000000000000000000000000008152600401610591906125bc565b60405180910390fd5b60006040518060400160405280600081526020016000815250905060005b86518110156106fb57838782815181106105fb577f4e487b7100000000000000000000000000000000000000000000000000000000600052603260045260246000fd5b602002602001015110610643576040517f08c379a000000000000000000000000000000000000000000000000000000000815260040161063a906125fc565b60405180910390fd5b6106e6826106e1856080015160018561065c9190612724565b81518110610693577f4e487b7100000000000000000000000000000000000000000000000000000000600052603260045260246000fd5b60200260200101518a85815181106106d4577f4e487b7100000000000000000000000000000000000000000000000000000000600052603260045260246000fd5b602002602001015161141b565b61156a565b915080806106f39061284f565b9150506105b8565b5061074b81836080015160008151811061073e577f4e487b7100000000000000000000000000000000000000000000000000000000600052603260045260246000fd5b602002602001015161156a565b905061078161075d8660000151611705565b8660200151846000015185602001518587604001518b6040015189606001516117aa565b6107915760019350505050610799565b600093505050505b92915050565b6107a7612199565b60405180604001604052807f2d4d9aa7e302d9df41749d5507949d05dbea33fbb16c643b22f599a2be6df2e281526020017f14bedd503c37ceb061d8ec60209fe345ce89830a19230301f076caff004d19268152508160000181905250604051806040016040528060405180604001604052807f0967032fcbf776d1afc985f88877f182d38480a653f2decaa9794cbc3bf3060c81526020017f0e187847ad4c798374d0d6732bf501847dd68bc0e071241e0213bc7fc13db7ab815250815260200160405180604001604052807f304cfbd1e08a704a99f5e847d93f8c3caafddec46b7a0d379da69a4d112346a781526020017f1739c1b1a457a8c7313123d24d2f9192f896b7c63eea05a9d57f06547ad0cec88152508152508160200181905250604051806040016040528060405180604001604052807f198e9393920d483a7260bfb731fb5d25f1aa493335a9e71297e485b7aef312c281526020017f1800deef121f1e76426a00665e5c4479674322d4f75edadd46debd5cd992f6ed815250815260200160405180604001604052807f090689d0585ff075ec9e99ad690c3395bc4b313370b38ef355acdadcd122975b81526020017f12c85ea5db8c6deb4aab71808dcb408fe3d1e7690c43d37b4ce6cc0166fa7daa8152508152508160400181905250604051806040016040528060405180604001604052807f27be0abb3f8915d658bd00217e5d7b3c9df0540a0c04aa309da532e847d504ce81526020017f01dd253a39e7ab0668e21c1af453744fde3057f484cc9ece34676707353709cc815250815260200160405180604001604052807f0d4f3753a7239f7f15c5a40f673d064d7fec8320365e35765fe1dfedc9089dbc81526020017f202df30c57157951f45020bab215fc31ff713efab318b2b2e020a004e15dbbc28152508152508160600181905250600f67ffffffffffffffff811115610a94577f4e487b7100000000000000000000000000000000000000000000000000000000600052604160045260246000fd5b604051908082528060200260200182016040528015610acd57816020015b610aba6121e0565b815260200190600190039081610ab25790505b50816080018190525060405180604001604052807f12471315c48a5cbb63c72adb5f5a518bfa64f56776d445efc28a52213b3c1a2d81526020017f2690b6d5761ef3473e0e04550a153b27c4318e90752a08d2acbd6079d8b5b3258152508160800151600081518110610b69577f4e487b7100000000000000000000000000000000000000000000000000000000600052603260045260246000fd5b602002602001018190525060405180604001604052807f092a7c235097c675ee2c07e4e63f87335b0d5c9a880b555ed831fe595877a8ee81526020017f1321b90b1a1b7edc2bc70a0b59723949047fa2304703e6d08b47bb63064180128152508160800151600181518110610c07577f4e487b7100000000000000000000000000000000000000000000000000000000600052603260045260246000fd5b602002602001018190525060405180604001604052807f13e36a2aa93503016f7200db95dc8808f146a712d979419117ecfe752111742281526020017f2aef952e655736f7fde62fcc6f27c4068725012a8e568d8093930a0f020269d38152508160800151600281518110610ca5577f4e487b7100000000000000000000000000000000000000000000000000000000600052603260045260246000fd5b602002602001018190525060405180604001604052807f21b58c7c8d03f516ee3e72a14d5acda916f040881bd8f88c524a394edce2706881526020017f181bed5e15d7c9cff4dba4cd8e9532ac105d4b55c46730c0134da29fc066e9748152508160800151600381518110610d43577f4e487b7100000000000000000000000000000000000000000000000000000000600052603260045260246000fd5b602002602001018190525060405180604001604052807f2e4914dd40d62dfd01c2c94a8dab579601d2a33da6cbd45bd50aa438acbf63e981526020017f20fbcabee109b18ae810637728287d0aa59bbfc5f233d7cbab45c1d4f09dd6e18152508160800151600481518110610de1577f4e487b7100000000000000000000000000000000000000000000000000000000600052603260045260246000fd5b602002602001018190525060405180604001604052807f033e5aa7579b38d3c7bbaafcd0288718ac0355d3063d055a9d11a7f6e9d5527481526020017f140950ad28291ee639c7162800d13be9d033e57d98e69c2c3973b7dd7e315d1c8152508160800151600581518110610e7f577f4e487b7100000000000000000000000000000000000000000000000000000000600052603260045260246000fd5b602002602001018190525060405180604001604052807f18a806e3457e480a7258a9984eab1faf69462470b844ea6eb96a80b159b5548b81526020017f020ba4dc63bb1bd721cf20b8626c416f2262bc57b2466d043d403989798bb6e38152508160800151600681518110610f1d577f4e487b7100000000000000000000000000000000000000000000000000000000600052603260045260246000fd5b602002602001018190525060405180604001604052807f2ae9049cea6975efcda24af289b557f3361aba4eb6815a4fc514c2f7942516ef81526020017f2b86e6848f7752e28235a0eb32200a3a98d1a5556c3d4e8bbae7d5d9fc37c2e88152508160800151600781518110610fbb577f4e487b7100000000000000000000000000000000000000000000000000000000600052603260045260246000fd5b602002602001018190525060405180604001604052807f26a2f0f01b403e74f8b052a2b9be09190ffdeb3d68fb5def25bddb04e57e6a2781526020017f17748c5d534e5ae864ce17838eda0ccf6b5e346ee69549712168dcf716644f9b8152508160800151600881518110611059577f4e487b7100000000000000000000000000000000000000000000000000000000600052603260045260246000fd5b602002602001018190525060405180604001604052807f2e9f2e580483f46fd8cb0c19b3baa8b826e39b0676798244963f068d426c6e7d81526020017f25ca335b4d0568b5c50186820e012c13f25565a759801ef4f24126281c29e60f81525081608001516009815181106110f7577f4e487b7100000000000000000000000000000000000000000000000000000000600052603260045260246000fd5b602002602001018190525060405180604001604052807f0c4de9d655a6cade1b20caaf73c51b2fce5d19cd56417f2b4ce2a15f5e07f8e581526020017f2e93ea532c1c73e41f5bb49b33ff45b7182f2d5fc2aada52da674d4e217bad1c8152508160800151600a81518110611195577f4e487b7100000000000000000000000000000000000000000000000000000000600052603260045260246000fd5b602002602001018190525060405180604001604052807f1539efa47c7c858b946f066cecde287d4a5040d18b6b4c4274b029f94d84545681526020017f11edfbbc716dfb232d50775e84fd73c14289ff757887e2c901b5d3033530f9838152508160800151600b81518110611233577f4e487b7100000000000000000000000000000000000000000000000000000000600052603260045260246000fd5b602002602001018190525060405180604001604052807f1c94dc43f7b3dcfdbffeeebe38e78b67a62bb2ac0e9e32d4f9f21d9cc068f46381526020017f0e9add0945824b15a0e1079db36ca841272067b7d3be036f18ee14a9cec10c948152508160800151600c815181106112d1577f4e487b7100000000000000000000000000000000000000000000000000000000600052603260045260246000fd5b602002602001018190525060405180604001604052807f1b922eb18dafc249545edf80a3e55299581e659ec12f9693661c9b5c040dac4581526020017f1f016dc4de4c56d4e4a959d0c8eda313ec02dc627fbdfe53828e1f51bc3bce498152508160800151600d8151811061136f577f4e487b7100000000000000000000000000000000000000000000000000000000600052603260045260246000fd5b602002602001018190525060405180604001604052807f07391a5d7452942fdda9361e41ddf1cc9f2ccb4c52337af6a4f2909f670baafc81526020017f25a0e29e059a9823e6e206712a3ef1ecf64b11b5efdcbd9a8561b096d2b4f8ee8152508160800151600e8151811061140d577f4e487b7100000000000000000000000000000000000000000000000000000000600052603260045260246000fd5b602002602001018190525090565b6114236121e0565b61142b6121fa565b83600001518160006003811061146a577f4e487b7100000000000000000000000000000000000000000000000000000000600052603260045260246000fd5b6020020181815250508360200151816001600381106114b2577f4e487b7100000000000000000000000000000000000000000000000000000000600052603260045260246000fd5b60200201818152505082816002600381106114f6577f4e487b7100000000000000000000000000000000000000000000000000000000600052603260045260246000fd5b602002018181525050600060608360808460076107d05a03fa9050806000811461151f57611521565bfe5b5080611562576040517f08c379a0000000000000000000000000000000000000000000000000000000008152600401611559906125dc565b60405180910390fd5b505092915050565b6115726121e0565b61157a61221c565b8360000151816000600481106115b9577f4e487b7100000000000000000000000000000000000000000000000000000000600052603260045260246000fd5b602002018181525050836020015181600160048110611601577f4e487b7100000000000000000000000000000000000000000000000000000000600052603260045260246000fd5b602002018181525050826000015181600260048110611649577f4e487b7100000000000000000000000000000000000000000000000000000000600052603260045260246000fd5b602002018181525050826020015181600360048110611691577f4e487b7100000000000000000000000000000000000000000000000000000000600052603260045260246000fd5b602002018181525050600060608360c08460066107d05a03fa905080600081146116ba576116bc565bfe5b50806116fd576040517f08c379a00000000000000000000000000000000000000000000000000000000081526004016116f49061263c565b60405180910390fd5b505092915050565b61170d6121e0565b60007f30644e72e131a029b85045b68181585d97816a916871ca8d3c208c16d87cfd4790506000836000015114801561174a575060008360200151145b1561176e5760405180604001604052806000815260200160008152509150506117a5565b6040518060400160405280846000015181526020018285602001516117939190612898565b8361179e91906127d4565b8152509150505b919050565b600080600467ffffffffffffffff8111156117ee577f4e487b7100000000000000000000000000000000000000000000000000000000600052604160045260246000fd5b60405190808252806020026020018201604052801561182757816020015b6118146121e0565b81526020019060019003908161180c5790505b5090506000600467ffffffffffffffff81111561186d577f4e487b7100000000000000000000000000000000000000000000000000000000600052604160045260246000fd5b6040519080825280602002602001820160405280156118a657816020015b61189361223e565b81526020019060019003908161188b5790505b5090508a826000815181106118e4577f4e487b7100000000000000000000000000000000000000000000000000000000600052603260045260246000fd5b6020026020010181905250888260018151811061192a577f4e487b7100000000000000000000000000000000000000000000000000000000600052603260045260246000fd5b60200260200101819052508682600281518110611970577f4e487b7100000000000000000000000000000000000000000000000000000000600052603260045260246000fd5b602002602001018190525084826003815181106119b6577f4e487b7100000000000000000000000000000000000000000000000000000000600052603260045260246000fd5b602002602001018190525089816000815181106119fc577f4e487b7100000000000000000000000000000000000000000000000000000000600052603260045260246000fd5b60200260200101819052508781600181518110611a42577f4e487b7100000000000000000000000000000000000000000000000000000000600052603260045260246000fd5b60200260200101819052508581600281518110611a88577f4e487b7100000000000000000000000000000000000000000000000000000000600052603260045260246000fd5b60200260200101819052508381600381518110611ace577f4e487b7100000000000000000000000000000000000000000000000000000000600052603260045260246000fd5b6020026020010181905250611ae38282611af3565b9250505098975050505050505050565b60008151835114611b39576040517f08c379a0000000000000000000000000000000000000000000000000000000008152600401611b309061261c565b60405180910390fd5b6000835190506000600682611b4e919061277a565b905060008167ffffffffffffffff811115611b92577f4e487b7100000000000000000000000000000000000000000000000000000000600052604160045260246000fd5b604051908082528060200260200182016040528015611bc05781602001602082028036833780820191505090505b50905060005b838110156120a557868181518110611c07577f4e487b7100000000000000000000000000000000000000000000000000000000600052603260045260246000fd5b602002602001015160000151826000600684611c23919061277a565b611c2d9190612724565b81518110611c64577f4e487b7100000000000000000000000000000000000000000000000000000000600052603260045260246000fd5b602002602001018181525050868181518110611ca9577f4e487b7100000000000000000000000000000000000000000000000000000000600052603260045260246000fd5b602002602001015160200151826001600684611cc5919061277a565b611ccf9190612724565b81518110611d06577f4e487b7100000000000000000000000000000000000000000000000000000000600052603260045260246000fd5b602002602001018181525050858181518110611d4b577f4e487b7100000000000000000000000000000000000000000000000000000000600052603260045260246000fd5b602002602001015160000151600060028110611d90577f4e487b7100000000000000000000000000000000000000000000000000000000600052603260045260246000fd5b6020020151826002600684611da5919061277a565b611daf9190612724565b81518110611de6577f4e487b7100000000000000000000000000000000000000000000000000000000600052603260045260246000fd5b602002602001018181525050858181518110611e2b577f4e487b7100000000000000000000000000000000000000000000000000000000600052603260045260246000fd5b602002602001015160000151600160028110611e70577f4e487b7100000000000000000000000000000000000000000000000000000000600052603260045260246000fd5b6020020151826003600684611e85919061277a565b611e8f9190612724565b81518110611ec6577f4e487b7100000000000000000000000000000000000000000000000000000000600052603260045260246000fd5b602002602001018181525050858181518110611f0b577f4e487b7100000000000000000000000000000000000000000000000000000000600052603260045260246000fd5b602002602001015160200151600060028110611f50577f4e487b7100000000000000000000000000000000000000000000000000000000600052603260045260246000fd5b6020020151826004600684611f65919061277a565b611f6f9190612724565b81518110611fa6577f4e487b7100000000000000000000000000000000000000000000000000000000600052603260045260246000fd5b602002602001018181525050858181518110611feb577f4e487b7100000000000000000000000000000000000000000000000000000000600052603260045260246000fd5b602002602001015160200151600160028110612030577f4e487b7100000000000000000000000000000000000000000000000000000000600052603260045260246000fd5b6020020151826005600684612045919061277a565b61204f9190612724565b81518110612086577f4e487b7100000000000000000000000000000000000000000000000000000000600052603260045260246000fd5b602002602001018181525050808061209d9061284f565b915050611bc6565b506120ae612264565b6000602082602086026020860160086107d05a03fa905080600081146120d3576120d5565bfe5b5080612116576040517f08c379a000000000000000000000000000000000000000000000000000000000815260040161210d9061265c565b60405180910390fd5b600082600060018110612152577f4e487b7100000000000000000000000000000000000000000000000000000000600052603260045260246000fd5b602002015114159550505050505092915050565b60405180606001604052806121796121e0565b815260200161218661223e565b81526020016121936121e0565b81525090565b6040518060a001604052806121ac6121e0565b81526020016121b961223e565b81526020016121c661223e565b81526020016121d361223e565b8152602001606081525090565b604051806040016040528060008152602001600081525090565b6040518060600160405280600390602082028036833780820191505090505090565b6040518060800160405280600490602082028036833780820191505090505090565b6040518060400160405280612251612286565b815260200161225e612286565b81525090565b6040518060200160405280600190602082028036833780820191505090505090565b6040518060400160405280600290602082028036833780820191505090505090565b60006122bb6122b6846126a1565b61267c565b905080828560408602820111156122d157600080fd5b60005b8581101561230157816122e7888261241f565b8452602084019350604083019250506001810190506122d4565b5050509392505050565b600061231e612319846126c7565b61267c565b9050808285602086028201111561233457600080fd5b60005b85811015612364578161234a8882612446565b845260208401935060208301925050600181019050612337565b5050509392505050565b600061238161237c846126ed565b61267c565b9050808285602086028201111561239757600080fd5b60005b858110156123c757816123ad8882612446565b84526020840193506020830192505060018101905061239a565b5050509392505050565b600082601f8301126123e257600080fd5b60026123ef8482856122a8565b91505092915050565b600082601f83011261240957600080fd5b600e61241684828561230b565b91505092915050565b600082601f83011261243057600080fd5b600261243d84828561236e565b91505092915050565b60008135905061245581612a5d565b92915050565b6000806000806102c0858703121561247257600080fd5b60006124808782880161241f565b9450506040612491878288016123d1565b93505060c06124a28782880161241f565b9250506101006124b4878288016123f8565b91505092959194509250565b6124c981612808565b82525050565b60006124dc601283612713565b91506124e782612967565b602082019050919050565b60006124ff601283612713565b915061250a82612990565b602082019050919050565b6000612522601f83612713565b915061252d826129b9565b602082019050919050565b6000612545601683612713565b9150612550826129e2565b602082019050919050565b6000612568601283612713565b915061257382612a0b565b602082019050919050565b600061258b601583612713565b915061259682612a34565b602082019050919050565b60006020820190506125b660008301846124c0565b92915050565b600060208201905081810360008301526125d5816124cf565b9050919050565b600060208201905081810360008301526125f5816124f2565b9050919050565b6000602082019050818103600083015261261581612515565b9050919050565b6000602082019050818103600083015261263581612538565b9050919050565b600060208201905081810360008301526126558161255b565b9050919050565b600060208201905081810360008301526126758161257e565b9050919050565b6000612686612697565b9050612692828261281e565b919050565b6000604051905090565b600067ffffffffffffffff8211156126bc576126bb612927565b5b602082029050919050565b600067ffffffffffffffff8211156126e2576126e1612927565b5b602082029050919050565b600067ffffffffffffffff82111561270857612707612927565b5b602082029050919050565b600082825260208201905092915050565b600061272f82612814565b915061273a83612814565b9250827fffffffffffffffffffffffffffffffffffffffffffffffffffffffffffffffff0382111561276f5761276e6128c9565b5b828201905092915050565b600061278582612814565b915061279083612814565b9250817fffffffffffffffffffffffffffffffffffffffffffffffffffffffffffffffff04831182151516156127c9576127c86128c9565b5b828202905092915050565b60006127df82612814565b91506127ea83612814565b9250828210156127fd576127fc6128c9565b5b828203905092915050565b60008115159050919050565b6000819050919050565b61282782612956565b810181811067ffffffffffffffff8211171561284657612845612927565b5b80604052505050565b600061285a82612814565b91507fffffffffffffffffffffffffffffffffffffffffffffffffffffffffffffffff82141561288d5761288c6128c9565b5b600182019050919050565b60006128a382612814565b91506128ae83612814565b9250826128be576128bd6128f8565b5b828206905092915050565b7f4e487b7100000000000000000000000000000000000000000000000000000000600052601160045260246000fd5b7f4e487b7100000000000000000000000000000000000000000000000000000000600052601260045260246000fd5b7f4e487b7100000000000000000000000000000000000000000000000000000000600052604160045260246000fd5b6000601f19601f8301169050919050565b7f76657269666965722d6261642d696e7075740000000000000000000000000000600082015250565b7f70616972696e672d6d756c2d6661696c65640000000000000000000000000000600082015250565b7f76657269666965722d6774652d736e61726b2d7363616c61722d6669656c6400600082015250565b7f70616972696e672d6c656e677468732d6661696c656400000000000000000000600082015250565b7f70616972696e672d6164642d6661696c65640000000000000000000000000000600082015250565b7f70616972696e672d6f70636f64652d6661696c65640000000000000000000000600082015250565b612a6681612814565b8114612a7157600080fd5b5056fea264697066735822122086a06059a97964ca87eaef744077704ffa369314b1f28fe0defcc457edceafc364736f6c63430008040033",
  "linkReferences": {},
  "deployedLinkReferences": {}
}